:100000000C9435000C945D000C945D000C945D0024
:100010000C945D000C945D000C945D000C94000247
:100020000C945D000C945D000C945D000C945D00DC
:100030000C945D000C945D000C945D000C945D00CC
:100040000C945D000C945D000C94CE010C94A801FE
:100050000C945D000C945D000C945D000C945D00AC
:100060000C945D000C945D00CC0311241FBECFEFF7
:10007000D8E0DEBFCDBF11E0A0E0B1E0E8E2FAE0F9
:1000800002C005900D92A032B107D9F721E0A0E29D
:10009000B1E001C01D92A03EB207E1F710E0C5E358
:1000A000D0E004C02197FE010E940705C433D107A8
:1000B000C9F70E94F9030C9412050C940000CF922A
:1000C000DF92EF92FF920F931F93CF93DF936C0118
:1000D0007A018B01C0E0D0E0CE15DF0589F0D801B0
:1000E0006D918D01D601ED91FC910190F081E02D93
:1000F000C6010995892B11F47E0102C02196ECCF2F
:10010000C701DF91CF911F910F91FF90EF90DF908A
:10011000CF900895089580E090E00895FC01538DFC
:10012000448D252F30E0842F90E0821B930B5417D1
:1001300010F0CF96089501970895FC01918D828D5E
:10014000981761F0828DDF01A80FB11D5D968C912B
:10015000928D9F5F9F73928F90E008958FEF9FEF36
:100160000895FC01918D828D981731F0828DE80FF2
:10017000F11D858D90E008958FEF9FEF0895FC01AC
:10018000918D228D892F90E0805C9F4F821B910979
:100190008F7399270895FC01848DDF01A80FB11D8D
:1001A000A35ABF4F2C91848D90E001968F739927AD
:1001B000848FA689B7892C93A089B1898C9180649A
:1001C0008C93938D848D981306C00288F389E02D5B
:1001D00080818F7D80830895EF92FF920F931F930C
:1001E000CF93DF93EC0181E0888F9B8D8C8D9813EA
:1001F00005C0E889F989808185FD24C0F62E0B8D24
:1002000010E00F5F1F4F0F731127E02E8C8DE81247
:100210000CC00FB607FCFACFE889F989808185FF09
:10022000F5CFCE010E94CB00F1CF8B8DFE01E80F00
:10023000F11DE35AFF4FF0820B8FEA89FB89808121
:10024000806207C0EE89FF896083E889F98980812F
:100250008064808381E090E0DF91CF911F910F91C6
:10026000FF90EF900895CF93DF93EC01888D882362
:10027000C9F0EA89FB89808185FD05C0A889B98913
:100280008C9186FD0FC00FB607FCF5CF808185FFEE
:10029000F2CFA889B9898C9185FFEDCFCE010E945C
:1002A000CB00E7CFDF91CF9108958F929F92AF92CD
:1002B000BF920F931F93CF93DF93CDB7DEB7A19774
:1002C0000FB6F894DEBF0FBECDBF19A2423008F4BE
:1002D0004AE08E010F5D1F4F842E912CA12CB12C72
:1002E000A50194010E94D104E62FB901CA01015071
:1002F0001109EA3014F4E05D01C0E95CD801EC9327
:10030000232B242B252B61F70115110571F0F80122
:1003100001900020E9F73197AF01401B510BB80164
:1003200083E491E00E945F0002C080E090E0A1962B
:100330000FB6F894DEBF0FBECDBFDF91CF911F91F6
:100340000F91BF90AF909F908F9008950E940D05E0
:100350001F920F920FB60F9211242F933F934F933A
:100360005F936F937F938F939F93AF93BF93EF931D
:10037000FF9383E491E00E94CB00FF91EF91BF9146
:10038000AF919F918F917F916F915F914F913F912D
:100390002F910F900FBE0F901F9018951F920F92E4
:1003A0000FB60F9211242F938F939F93EF93FF9388
:1003B000E0915301F09154018081E0915901F09155
:1003C0005A0182FD12C0908180915C018F5F8F7312
:1003D00020915D01821751F0E0915C01F0E0ED5B4E
:1003E000FE4F958F80935C0101C08081FF91EF915A
:1003F0009F918F912F910F900FBE0F901F90189586
:100400001F920F920FB60F9211240F931F932F93E9
:100410003F934F935F936F937F938F939F93AF938C
:10042000BF93CF93DF93EF93FF9380917A00806423
:1004300080937A0080917A0086FDFCCF209178002D
:100440008091790090E0982F8827820F911D9093DA
:1004500042018093410180913D0190913E01A09124
:100460003F01B09140010296A11DB11D80933D0155
:1004700090933E01A0933F01B093400140913D0114
:1004800050913E0160913F0170914001809139018E
:1004900090913A01A0913B01B0913C01EA01C81B47
:1004A000D90B209141013091420180910901909135
:1004B0000A01281739071CF580910701909108015E
:1004C00065E070E00E94BD04CB01880F991F680FA2
:1004D000791F6C177D079CF42091410130914201F6
:1004E00080910501909106012817390744F4809105
:1004F0004101909142019093060180930501209162
:100500004101309142018091090190910A018217C5
:10051000930764F4209141013091420180910301DD
:1005200090910401821793070CF4A4C0CB3FD1052E
:100530000CF469C020914101309142018091090180
:1005400090910A01821793070CF05DC080913801E9
:10055000811159C0809107019091080165E070E018
:100560000E94BD04CB01880F991F680F791F6C177B
:100570007D070CF488C047C080E090E000E010E008
:100580009801BC016F5F7F4FFB01EE0FFF1FED5D18
:10059000FE4FA081B181880F991FFC01ED5DFE4FD8
:1005A000B183A08380819181092E000CAA0BBB0B23
:1005B000080F191F2A1F3B1FCB016930710509F76E
:1005C0008091070190910801909336018093350145
:1005D0008091350190913601092E000CAA0BBB0BBE
:1005E000A9019801280F391F4A1F5B1F60EC77E2B1
:1005F00089E090E00E94D1043093220120932101F0
:1006000081E080932001209141013091420180914D
:10061000090190910A012817390724F480913801C3
:1006200081117CC0C53CD9400CF4A1C080E092E0AF
:100630009093060180930501909304018093030138
:1006400090930A018093090181E080930201109246
:10065000370180913D0190913E01A0913F01B09101
:1006600040018093390190933A01A0933B01B093EC
:100670003C017DC080914101909142019093040121
:100680008093030153CF81E08093380180913D0135
:1006900090913E01A0913F01B091400140913901FC
:1006A00050913A0160913B0170913C01841B950B84
:1006B000909308018093070180913D0190913E0144
:1006C000A0913F01B09140018093390190933A018C
:1006D000A0933B01B0933C0180913701882399F0AE
:1006E0001092370180E090E02091070130910801DD
:1006F000FC01EE0FFF1FED5DFE4F3183208301965D
:100700008A30910589F780910201882309F434CF5A
:100710001092020181E08093370129C010923801C4
:10072000809103019091040120910501309106010F
:10073000821B930B90930101809300018091000133
:1007400090910101209105013091060195958795C1
:10075000820F931F90930A018093090190930601E1
:100760008093050190930401809303015BCFFF9177
:10077000EF91DF91CF91BF91AF919F918F917F9139
:100780006F915F914F913F912F911F910F910F901A
:100790000FBE0F901F901895E3E4F1E013821282D0
:1007A00088EE93E0A0E0B0E084839583A683B783CE
:1007B0008FE091E09183808385EC90E0958784873A
:1007C00084EC90E09787868780EC90E0918B808B1B
:1007D00081EC90E0938B828B82EC90E0958B848B04
:1007E00086EC90E0978B868B118E128E138E148E72
:1007F0000895789484B18C6284B98CB583658CBD7E
:100800002A9A80917C00806480937C0080917C0097
:100810008F7780937C0080917C008F7D80937C001B
:1008200080917C00866080937C0080917B00887F33
:1008300080937B0080917A00806880937A00809119
:100840007A00876080937A0080917E008760809331
:100850007E0080917A00806480937A0082E08093A9
:10086000B00026E02093B1009CE79093B300809302
:10087000700090917C00987F90937C00E0915301F0
:10088000F09154018083E0914F01F091500110826A
:10089000E0915101F091520180E1808310925B015F
:1008A000E0915701F09158012083E0915501F091BA
:1008B0005601808180618083E0915501F09156015D
:1008C000808188608083E0915501F091560180819C
:1008D00080688083E0915501F091560180818F7D81
:1008E000808312E017BD16BC85B5826085BD88EE99
:1008F00093E0A99BFECFA99A0197D9F785B5887F88
:1009000085BDC0912101D0912201809120018823D1
:1009100049F3C0902101D09022010D2C000CEE086B
:10092000FF08F7FE14C0E0914301F09144010190EB
:10093000F081E02D6DE283E491E009956627772749
:10094000CB016C197D098E099F094AE003C04AE07A
:10095000C701B6010E94550142E050E06DE171E02F
:1009600083E491E00E945F002A98CEBD0DB407FE9B
:10097000FDCF2A9A10922001B5CF97FB072E16F4CF
:10098000009407D077FD09D00E94F30407FC05D03E
:100990003EF4909581959F4F0895709561957F4F96
:1009A0000895A1E21A2EAA1BBB1BFD010DC0AA1FB0
:1009B000BB1FEE1FFF1FA217B307E407F50720F0C8
:1009C000A21BB30BE40BF50B661F771F881F991F43
:1009D0001A9469F760957095809590959B01AC018C
:1009E000BD01CF010895AA1BBB1B51E107C0AA1F7F
:1009F000BB1FA617B70710F0A61BB70B881F991FC0
:100A00005A95A9F780959095BC01CD010895EE0FF8
:100A1000FF1F0590F491E02D099481E090E0F89497
:080A20000C941205F894FFCFBD
:100A2800640001000200025802000200000000EC0D
:100A3800005F008E003301BF009D00B1000D0A0069
:00000001FF
